{
  "_format": "hh-sol-artifact-1",
  "contractName": "A",
  "sourceName": "contracts/A.sol",
  "abi": [
    {
      "inputs": [],
      "name": "getA",
      "outputs": [
        {
          "internalType": "uint256",
          "name": "",
          "type": "uint256"
        }
      ],
      "stateMutability": "view",
      "type": "function"
    },
    {
      "inputs": [
        {
          "internalType": "uint256",
          "name": "_a",
          "type": "uint256"
        }
      ],
      "name": "setA",
      "outputs": [],
      "stateMutability": "nonpayable",
      "type": "function"
    }
  ],
  "bytecode": "0x608060405234801561001057600080fd5b50610156806100206000396000f3fe608060405234801561001057600080fd5b50600436106100365760003560e01c8063d46300fd1461003b578063ee919d5014610059575b600080fd5b610043610075565b60405161005091906100a7565b60405180910390f35b610073600480360381019061006e91906100f3565b610081565b005b60008060010154905090565b8060006001018190555050565b6000819050919050565b6100a18161008e565b82525050565b60006020820190506100bc6000830184610098565b92915050565b600080fd5b6100d08161008e565b81146100db57600080fd5b50565b6000813590506100ed816100c7565b92915050565b600060208284031215610109576101086100c2565b5b6000610117848285016100de565b9150509291505056fea264697066735822122003c87d3010a856ed06869e37fa099af9fa243056908b1f6a68cc90eabd1f50d664736f6c634300080a0033",
  "linkReferences": {},
  "deployedLinkReferences": {}
}