{
  "_format": "hh-sol-artifact-1",
  "contractName": "B",
  "sourceName": "contracts/A.sol",
  "abi": [
    {
      "inputs": [
        {
          "internalType": "address",
          "name": "_A",
          "type": "address"
        }
      ],
      "stateMutability": "nonpayable",
      "type": "constructor"
    },
    {
      "inputs": [],
      "name": "getB",
      "outputs": [
        {
          "internalType": "uint256",
          "name": "",
          "type": "uint256"
        }
      ],
      "stateMutability": "view",
      "type": "function"
    },
    {
      "inputs": [
        {
          "internalType": "uint256",
          "name": "_b",
          "type": "uint256"
        }
      ],
      "name": "setB",
      "outputs": [],
      "stateMutability": "nonpayable",
      "type": "function"
    }
  ],
  "bytecode": "0x608060405234801561001057600080fd5b506040516104a13803806104a1833981810160405281019061003291906100dc565b80600160006101000a81548173ffffffffffffffffffffffffffffffffffffffff021916908373ffffffffffffffffffffffffffffffffffffffff16021790555050610109565b600080fd5b600073ffffffffffffffffffffffffffffffffffffffff82169050919050565b60006100a98261007e565b9050919050565b6100b98161009e565b81146100c457600080fd5b50565b6000815190506100d6816100b0565b92915050565b6000602082840312156100f2576100f1610079565b5b6000610100848285016100c7565b91505092915050565b610389806101186000396000f3fe608060405234801561001057600080fd5b50600436106100365760003560e01c806309cdcf9b1461003b578063a1c5191514610057575b600080fd5b610055600480360381019061005091906101e6565b610075565b005b61005f6101a2565b60405161006c9190610222565b60405180910390f35b80600081905550600160009054906101000a900473ffffffffffffffffffffffffffffffffffffffff1673ffffffffffffffffffffffffffffffffffffffff166001826100c2919061026c565b6040516024016100d29190610222565b6040516020818303038152906040527fee919d50000000000000000000000000000000000000000000000000000000007bffffffffffffffffffffffffffffffffffffffffffffffffffffffff19166020820180517bffffffffffffffffffffffffffffffffffffffffffffffffffffffff838183161783525050505060405161015c919061033c565b600060405180830381855af49150503d8060008114610197576040519150601f19603f3d011682016040523d82523d6000602084013e61019c565b606091505b50505050565b60008054905090565b600080fd5b6000819050919050565b6101c3816101b0565b81146101ce57600080fd5b50565b6000813590506101e0816101ba565b92915050565b6000602082840312156101fc576101fb6101ab565b5b600061020a848285016101d1565b91505092915050565b61021c816101b0565b82525050565b60006020820190506102376000830184610213565b92915050565b7f4e487b7100000000000000000000000000000000000000000000000000000000600052601160045260246000fd5b6000610277826101b0565b9150610282836101b0565b9250827fffffffffffffffffffffffffffffffffffffffffffffffffffffffffffffffff038211156102b7576102b661023d565b5b828201905092915050565b600081519050919050565b600081905092915050565b60005b838110156102f65780820151818401526020810190506102db565b83811115610305576000848401525b50505050565b6000610316826102c2565b61032081856102cd565b93506103308185602086016102d8565b80840191505092915050565b6000610348828461030b565b91508190509291505056fea26469706673582212203ad4539821333b52aeb899cc11417e028cf8caabf331bd2bc355b950e8f56cb964736f6c634300080a0033",
  "linkReferences": {},
  "deployedLinkReferences": {}
}