{
  "_format": "hh-sol-artifact-1",
  "contractName": "B",
  "sourceName": "contracts/A.sol",
  "abi": [
    {
      "inputs": [
        {
          "internalType": "address",
          "name": "_A",
          "type": "address"
        }
      ],
      "stateMutability": "nonpayable",
      "type": "constructor"
    },
    {
      "inputs": [],
      "name": "getB",
      "outputs": [
        {
          "internalType": "uint256",
          "name": "",
          "type": "uint256"
        }
      ],
      "stateMutability": "view",
      "type": "function"
    },
    {
      "inputs": [
        {
          "internalType": "uint256",
          "name": "_b",
          "type": "uint256"
        }
      ],
      "name": "setB",
      "outputs": [],
      "stateMutability": "nonpayable",
      "type": "function"
    }
  ],
  "bytecode": "0x608060405234801561001057600080fd5b506040516104f43803806104f483398181016040528101906100329190610127565b80600060020160026101000a81548173ffffffffffffffffffffffffffffffffffffffff021916908373ffffffffffffffffffffffffffffffffffffffff160217905550600460008001819055506045600060020160006101000a81548160ff021916908360ff16021790555060f5600060020160016101000a81548160ff021916908360ff16021790555050610154565b600080fd5b600073ffffffffffffffffffffffffffffffffffffffff82169050919050565b60006100f4826100c9565b9050919050565b610104816100e9565b811461010f57600080fd5b50565b600081519050610121816100fb565b92915050565b60006020828403121561013d5761013c6100c4565b5b600061014b84828501610112565b91505092915050565b610391806101636000396000f3fe608060405234801561001057600080fd5b50600436106100365760003560e01c806309cdcf9b1461003b578063a1c5191514610057575b600080fd5b610055600480360381019061005091906101ee565b610075565b005b61005f6101a7565b60405161006c919061022a565b60405180910390f35b806000800181905550600060020160029054906101000a900473ffffffffffffffffffffffffffffffffffffffff1673ffffffffffffffffffffffffffffffffffffffff166001826100c79190610274565b6040516024016100d7919061022a565b6040516020818303038152906040527fee919d50000000000000000000000000000000000000000000000000000000007bffffffffffffffffffffffffffffffffffffffffffffffffffffffff19166020820180517bffffffffffffffffffffffffffffffffffffffffffffffffffffffff83818316178352505050506040516101619190610344565b600060405180830381855af49150503d806000811461019c576040519150601f19603f3d011682016040523d82523d6000602084013e6101a1565b606091505b50505050565b60008060000154905090565b600080fd5b6000819050919050565b6101cb816101b8565b81146101d657600080fd5b50565b6000813590506101e8816101c2565b92915050565b600060208284031215610204576102036101b3565b5b6000610212848285016101d9565b91505092915050565b610224816101b8565b82525050565b600060208201905061023f600083018461021b565b92915050565b7f4e487b7100000000000000000000000000000000000000000000000000000000600052601160045260246000fd5b600061027f826101b8565b915061028a836101b8565b9250827fffffffffffffffffffffffffffffffffffffffffffffffffffffffffffffffff038211156102bf576102be610245565b5b828201905092915050565b600081519050919050565b600081905092915050565b60005b838110156102fe5780820151818401526020810190506102e3565b8381111561030d576000848401525b50505050565b600061031e826102ca565b61032881856102d5565b93506103388185602086016102e0565b80840191505092915050565b60006103508284610313565b91508190509291505056fea2646970667358221220d2d9984b9d80d07419849ee7e1ebd44ad75ad6062183b59e8e432924ef65803464736f6c634300080a0033",
  "linkReferences": {},
  "deployedLinkReferences": {}
}