{
  "_format": "hh-sol-artifact-1",
  "contractName": "Hero",
  "sourceName": "contracts/Hero.sol",
  "abi": [
    {
      "inputs": [
        {
          "internalType": "enum Hero.Class",
          "name": "class",
          "type": "uint8"
        }
      ],
      "name": "createHero",
      "outputs": [],
      "stateMutability": "payable",
      "type": "function"
    },
    {
      "inputs": [],
      "name": "getHeroes",
      "outputs": [
        {
          "internalType": "uint256[]",
          "name": "",
          "type": "uint256[]"
        }
      ],
      "stateMutability": "view",
      "type": "function"
    }
  ],
  "bytecode": "0x608060405234801561001057600080fd5b5061034a806100206000396000f3fe6080604052600436106100295760003560e01c80635e7e236d1461002e5780639a8d28821461004a575b600080fd5b61004860048036038101906100439190610180565b610075565b005b34801561005657600080fd5b5061005f6100c2565b60405161006c9190610275565b60405180910390f35b66b1a2bc2ec500003410156100bf576040517f08c379a00000000000000000000000000000000000000000000000000000000081526004016100b6906102f4565b60405180910390fd5b50565b60606000803373ffffffffffffffffffffffffffffffffffffffff1673ffffffffffffffffffffffffffffffffffffffff16815260200190815260200160002080548060200260200160405190810160405280929190818152602001828054801561014c57602002820191906000526020600020905b815481526020019060010190808311610138575b5050505050905090565b600080fd5b6003811061016857600080fd5b50565b60008135905061017a8161015b565b92915050565b60006020828403121561019657610195610156565b5b60006101a48482850161016b565b91505092915050565b600081519050919050565b600082825260208201905092915050565b6000819050602082019050919050565b6000819050919050565b6101ec816101d9565b82525050565b60006101fe83836101e3565b60208301905092915050565b6000602082019050919050565b6000610222826101ad565b61022c81856101b8565b9350610237836101c9565b8060005b8381101561026857815161024f88826101f2565b975061025a8361020a565b92505060018101905061023b565b5085935050505092915050565b6000602082019050818103600083015261028f8184610217565b905092915050565b600082825260208201905092915050565b7f506c656173652073656e64206d6f7265206d6f6e657900000000000000000000600082015250565b60006102de601683610297565b91506102e9826102a8565b602082019050919050565b6000602082019050818103600083015261030d816102d1565b905091905056fea26469706673582212209867a23344933ee7723b34e86a2a111b97d782966079b09edc000860ec48de1264736f6c634300080a0033",
  "linkReferences": {},
  "deployedLinkReferences": {}
}