{
  "_format": "hh-sol-artifact-1",
  "contractName": "TestGas",
  "sourceName": "contracts/TestGas.sol",
  "abi": [
    {
      "inputs": [],
      "name": "test1",
      "outputs": [],
      "stateMutability": "nonpayable",
      "type": "function"
    },
    {
      "inputs": [],
      "name": "test2",
      "outputs": [],
      "stateMutability": "nonpayable",
      "type": "function"
    },
    {
      "inputs": [],
      "name": "test3",
      "outputs": [],
      "stateMutability": "nonpayable",
      "type": "function"
    },
    {
      "inputs": [],
      "name": "test4",
      "outputs": [],
      "stateMutability": "nonpayable",
      "type": "function"
    },
    {
      "inputs": [],
      "name": "test5",
      "outputs": [],
      "stateMutability": "nonpayable",
      "type": "function"
    }
  ],
  "bytecode": "0x608060405234801561001057600080fd5b50610267806100206000396000f3fe608060405234801561001057600080fd5b50600436106100575760003560e01c80630a8e8e011461005c5780631ad7be821461006657806366e41cb7146100705780636b59084d1461007a5780638f0d282d14610084575b600080fd5b61006461008e565b005b61006e6100d7565b005b6100786100f7565b005b610082610128565b005b61008c610141565b005b6000808154809291906100a090610192565b9190505550600160008154809291906100b890610192565b9190505550600260008154809291906100d090610192565b9190505550565b6100df610141565b6002546000546100ef91906101db565b600181905550565b60008081548092919061010990610192565b91905055506001600081548092919061012190610192565b9190505550565b60008081548092919061013a90610192565b9190505550565b60015460005461015191906101db565b600281905550565b7f4e487b7100000000000000000000000000000000000000000000000000000000600052601160045260246000fd5b6000819050919050565b600061019d82610188565b91507fffffffffffffffffffffffffffffffffffffffffffffffffffffffffffffffff8214156101d0576101cf610159565b5b600182019050919050565b60006101e682610188565b91506101f183610188565b9250827fffffffffffffffffffffffffffffffffffffffffffffffffffffffffffffffff0382111561022657610225610159565b5b82820190509291505056fea26469706673582212202c68480bd752ec632af83f5fd6919e4c4d4936f55067cf4267a3b21c7b7a054464736f6c634300080a0033",
  "linkReferences": {},
  "deployedLinkReferences": {}
}